{
  "contractName": "WorTokenSale",
  "abi": [
    {
      "inputs": [
        {
          "internalType": "contract WorToken",
          "name": "_tokenContract",
          "type": "address"
        },
        {
          "internalType": "uint256",
          "name": "_tokenPrice",
          "type": "uint256"
        }
      ],
      "payable": false,
      "stateMutability": "nonpayable",
      "type": "constructor"
    },
    {
      "anonymous": false,
      "inputs": [
        {
          "indexed": false,
          "internalType": "uint256",
          "name": "_totalAmountSold",
          "type": "uint256"
        }
      ],
      "name": "EndSale",
      "type": "event"
    },
    {
      "anonymous": false,
      "inputs": [
        {
          "indexed": false,
          "internalType": "address",
          "name": "_buyer",
          "type": "address"
        },
        {
          "indexed": false,
          "internalType": "uint256",
          "name": "_amount",
          "type": "uint256"
        }
      ],
      "name": "Sell",
      "type": "event"
    },
    {
      "anonymous": false,
      "inputs": [
        {
          "indexed": false,
          "internalType": "uint256",
          "name": "_value",
          "type": "uint256"
        }
      ],
      "name": "Withdraw",
      "type": "event"
    },
    {
      "constant": true,
      "inputs": [],
      "name": "tokenContract",
      "outputs": [
        {
          "internalType": "contract WorToken",
          "name": "",
          "type": "address"
        }
      ],
      "payable": false,
      "stateMutability": "view",
      "type": "function"
    },
    {
      "constant": true,
      "inputs": [],
      "name": "tokenPrice",
      "outputs": [
        {
          "internalType": "uint256",
          "name": "",
          "type": "uint256"
        }
      ],
      "payable": false,
      "stateMutability": "view",
      "type": "function"
    },
    {
      "constant": true,
      "inputs": [],
      "name": "tokensSold",
      "outputs": [
        {
          "internalType": "uint256",
          "name": "",
          "type": "uint256"
        }
      ],
      "payable": false,
      "stateMutability": "view",
      "type": "function"
    },
    {
      "constant": false,
      "inputs": [
        {
          "internalType": "uint256",
          "name": "_numberOfTokens",
          "type": "uint256"
        }
      ],
      "name": "buyTokens",
      "outputs": [],
      "payable": true,
      "stateMutability": "payable",
      "type": "function"
    },
    {
      "constant": false,
      "inputs": [],
      "name": "endSale",
      "outputs": [],
      "payable": false,
      "stateMutability": "nonpayable",
      "type": "function"
    },
    {
      "constant": false,
      "inputs": [],
      "name": "withdraw",
      "outputs": [],
      "payable": false,
      "stateMutability": "nonpayable",
      "type": "function"
    }
  ],
  "bytecode": "0x608060405234801561001057600080fd5b506040516109283803806109288339818101604052604081101561003357600080fd5b810190808051906020019092919080519060200190929190505050336000806101000a81548173ffffffffffffffffffffffffffffffffffffffff021916908373ffffffffffffffffffffffffffffffffffffffff16021790555081600160006101000a81548173ffffffffffffffffffffffffffffffffffffffff021916908373ffffffffffffffffffffffffffffffffffffffff160217905550806002819055505050610841806100e76000396000f3fe6080604052600436106100555760003560e01c80633610724e1461005a578063380d831b146100885780633ccfd60b1461009f578063518ab2a8146100b657806355a373d6146100e15780637ff9b59614610138575b600080fd5b6100866004803603602081101561007057600080fd5b8101908080359060200190929190505050610163565b005b34801561009457600080fd5b5061009d6103cb565b005b3480156100ab57600080fd5b506100b46106ae565b005b3480156100c257600080fd5b506100cb6107ae565b6040518082815260200191505060405180910390f35b3480156100ed57600080fd5b506100f66107b4565b604051808273ffffffffffffffffffffffffffffffffffffffff1673ffffffffffffffffffffffffffffffffffffffff16815260200191505060405180910390f35b34801561014457600080fd5b5061014d6107da565b6040518082815260200191505060405180910390f35b61016f816002546107e0565b341461017a57600080fd5b80600160009054906101000a900473ffffffffffffffffffffffffffffffffffffffff1673ffffffffffffffffffffffffffffffffffffffff166370a08231306040518263ffffffff1660e01b8152600401808273ffffffffffffffffffffffffffffffffffffffff1673ffffffffffffffffffffffffffffffffffffffff16815260200191505060206040518083038186803b15801561021a57600080fd5b505afa15801561022e573d6000803e3d6000fd5b505050506040513d602081101561024457600080fd5b8101908080519060200190929190505050101561026057600080fd5b600160009054906101000a900473ffffffffffffffffffffffffffffffffffffffff1673ffffffffffffffffffffffffffffffffffffffff1663a9059cbb33836040518363ffffffff1660e01b8152600401808373ffffffffffffffffffffffffffffffffffffffff1673ffffffffffffffffffffffffffffffffffffffff16815260200182815260200192505050602060405180830381600087803b15801561030957600080fd5b505af115801561031d573d6000803e3d6000fd5b505050506040513d602081101561033357600080fd5b810190808051906020019092919050505061034d57600080fd5b806003600082825401925050819055507f5e5e995ce3133561afceaa51a9a154d5db228cd7525d34df5185582c18d3df093382604051808373ffffffffffffffffffffffffffffffffffffffff1673ffffffffffffffffffffffffffffffffffffffff1681526020018281526020019250505060405180910390a150565b6000809054906101000a900473ffffffffffffffffffffffffffffffffffffffff1673ffffffffffffffffffffffffffffffffffffffff163373ffffffffffffffffffffffffffffffffffffffff161461042457600080fd5b600160009054906101000a900473ffffffffffffffffffffffffffffffffffffffff1673ffffffffffffffffffffffffffffffffffffffff1663a9059cbb6000809054906101000a900473ffffffffffffffffffffffffffffffffffffffff16600160009054906101000a900473ffffffffffffffffffffffffffffffffffffffff1673ffffffffffffffffffffffffffffffffffffffff166370a08231306040518263ffffffff1660e01b8152600401808273ffffffffffffffffffffffffffffffffffffffff1673ffffffffffffffffffffffffffffffffffffffff16815260200191505060206040518083038186803b15801561052357600080fd5b505afa158015610537573d6000803e3d6000fd5b505050506040513d602081101561054d57600080fd5b81019080805190602001909291905050506040518363ffffffff1660e01b8152600401808373ffffffffffffffffffffffffffffffffffffffff1673ffffffffffffffffffffffffffffffffffffffff16815260200182815260200192505050602060405180830381600087803b1580156105c757600080fd5b505af11580156105db573d6000803e3d6000fd5b505050506040513d60208110156105f157600080fd5b810190808051906020019092919050505061060b57600080fd5b6000809054906101000a900473ffffffffffffffffffffffffffffffffffffffff1673ffffffffffffffffffffffffffffffffffffffff166108fc479081150290604051600060405180830381858888f19350505050158015610672573d6000803e3d6000fd5b507f94173af9e1cd5351395663e6a7838552ea54f5233d0c38bc46de5f4915b302bf6003546040518082815260200191505060405180910390a1565b6000809054906101000a900473ffffffffffffffffffffffffffffffffffffffff1673ffffffffffffffffffffffffffffffffffffffff163373ffffffffffffffffffffffffffffffffffffffff161461070757600080fd5b60004790506000809054906101000a900473ffffffffffffffffffffffffffffffffffffffff1673ffffffffffffffffffffffffffffffffffffffff166108fc829081150290604051600060405180830381858888f19350505050158015610773573d6000803e3d6000fd5b507f5b6b431d4476a211bb7d41c20d1aab9ae2321deee0d20be3d9fc9b1093fa6e3d816040518082815260200191505060405180910390a150565b60035481565b600160009054906101000a900473ffffffffffffffffffffffffffffffffffffffff1681565b60025481565b6000808214806107fd57508282838502925082816107fa57fe5b04145b61080657600080fd5b9291505056fea265627a7a7231582016486507623d1fda07cce998a7b04adab35aceb5712947f17b85ed3ead696a6664736f6c63430005100032",
  "source": "// SPDX-License-Identifier: MIT\r\npragma solidity ^0.5.16;\r\nimport \"./WorToken.sol\";\r\n\r\ncontract WorTokenSale {\r\n    address payable admin;\r\n    WorToken public tokenContract;\r\n    uint256 public tokenPrice;\r\n    uint256 public tokensSold;\r\n\r\n    event Sell(address _buyer, uint256 _amount);\r\n    event EndSale(uint256 _totalAmountSold);\r\n    event Withdraw(uint256 _value);\r\n\r\n    constructor(WorToken _tokenContract, uint256 _tokenPrice) public {\r\n        admin = msg.sender;\r\n        tokenContract = _tokenContract;\r\n        tokenPrice = _tokenPrice;\r\n    }\r\n\r\n    function multiply(uint256 x, uint256 y) internal pure returns (uint256 z) {\r\n        require(y == 0 || (z = x * y) / y == x);\r\n    }\r\n\r\n    function buyTokens(uint256 _numberOfTokens) public payable {\r\n        require(msg.value == multiply(_numberOfTokens, tokenPrice));\r\n        require(tokenContract.balanceOf(address(this)) >= _numberOfTokens);\r\n        require(tokenContract.transfer(msg.sender, _numberOfTokens));\r\n\r\n        tokensSold += _numberOfTokens;\r\n\r\n        emit Sell(msg.sender, _numberOfTokens);\r\n    }\r\n\r\n    function endSale() public {\r\n        require(msg.sender == admin);\r\n        require(\r\n            tokenContract.transfer(\r\n                admin,\r\n                tokenContract.balanceOf(address(this))\r\n            )\r\n        );\r\n\r\n        admin.transfer(address(this).balance);\r\n\r\n        emit EndSale(tokensSold);\r\n    }\r\n\r\n    function withdraw() public {\r\n        require(msg.sender == admin);\r\n        uint256 _value = address(this).balance;\r\n        admin.transfer(_value);\r\n\r\n        emit Withdraw(_value);\r\n    }\r\n}\r\n",
  "sourcePath": "D:/Code/blockchain-dev/wor_token/contracts/WorTokenSale.sol",
  "compiler": {
    "name": "solc",
    "version": "0.5.16+commit.9c3226ce.Emscripten.clang"
  },
  "schemaVersion": "3.4.1",
  "updatedAt": "2021-11-12T16:58:06.624Z",
  "networkType": "ethereum",
  "devdoc": {
    "methods": {}
  },
  "userdoc": {
    "methods": {}
  }
}